{
  "contractName": "PandaOwnership",
  "abi": [
    {
      "constant": true,
      "inputs": [
        {
          "name": "",
          "type": "address"
        },
        {
          "name": "",
          "type": "uint256"
        }
      ],
      "name": "ownedPandas",
      "outputs": [
        {
          "name": "",
          "type": "uint256"
        }
      ],
      "payable": false,
      "stateMutability": "view",
      "type": "function"
    },
    {
      "constant": true,
      "inputs": [
        {
          "name": "",
          "type": "uint256"
        }
      ],
      "name": "pandaToOwner",
      "outputs": [
        {
          "name": "",
          "type": "address"
        }
      ],
      "payable": false,
      "stateMutability": "view",
      "type": "function"
    },
    {
      "constant": false,
      "inputs": [],
      "name": "setStopped",
      "outputs": [],
      "payable": false,
      "stateMutability": "nonpayable",
      "type": "function"
    },
    {
      "constant": true,
      "inputs": [],
      "name": "stopped",
      "outputs": [
        {
          "name": "",
          "type": "bool"
        }
      ],
      "payable": false,
      "stateMutability": "view",
      "type": "function"
    },
    {
      "constant": true,
      "inputs": [
        {
          "name": "",
          "type": "uint256"
        }
      ],
      "name": "pandas",
      "outputs": [
        {
          "name": "dna",
          "type": "uint256"
        }
      ],
      "payable": false,
      "stateMutability": "view",
      "type": "function"
    },
    {
      "constant": true,
      "inputs": [],
      "name": "owner",
      "outputs": [
        {
          "name": "",
          "type": "address"
        }
      ],
      "payable": false,
      "stateMutability": "view",
      "type": "function"
    },
    {
      "constant": true,
      "inputs": [
        {
          "name": "",
          "type": "uint256"
        }
      ],
      "name": "ownedPandaIndex",
      "outputs": [
        {
          "name": "",
          "type": "uint256"
        }
      ],
      "payable": false,
      "stateMutability": "view",
      "type": "function"
    },
    {
      "constant": false,
      "inputs": [
        {
          "name": "newOwner",
          "type": "address"
        }
      ],
      "name": "transferOwnership",
      "outputs": [],
      "payable": false,
      "stateMutability": "nonpayable",
      "type": "function"
    },
    {
      "payable": true,
      "stateMutability": "payable",
      "type": "fallback"
    },
    {
      "anonymous": false,
      "inputs": [
        {
          "indexed": false,
          "name": "pandaId",
          "type": "uint256"
        },
        {
          "indexed": false,
          "name": "dna",
          "type": "uint256"
        }
      ],
      "name": "NewPanda",
      "type": "event"
    },
    {
      "anonymous": false,
      "inputs": [
        {
          "indexed": true,
          "name": "previousOwner",
          "type": "address"
        },
        {
          "indexed": true,
          "name": "newOwner",
          "type": "address"
        }
      ],
      "name": "OwnershipTransferred",
      "type": "event"
    },
    {
      "constant": true,
      "inputs": [
        {
          "name": "_owner",
          "type": "address"
        }
      ],
      "name": "balanceOf",
      "outputs": [
        {
          "name": "_balance",
          "type": "uint256"
        }
      ],
      "payable": false,
      "stateMutability": "view",
      "type": "function"
    },
    {
      "constant": true,
      "inputs": [
        {
          "name": "_tokenId",
          "type": "uint256"
        }
      ],
      "name": "ownerOf",
      "outputs": [
        {
          "name": "_owner",
          "type": "address"
        }
      ],
      "payable": false,
      "stateMutability": "view",
      "type": "function"
    },
    {
      "constant": true,
      "inputs": [
        {
          "name": "_owner",
          "type": "address"
        }
      ],
      "name": "pandasOf",
      "outputs": [
        {
          "name": "_ownedPandaIds",
          "type": "uint256[]"
        }
      ],
      "payable": false,
      "stateMutability": "view",
      "type": "function"
    },
    {
      "constant": false,
      "inputs": [
        {
          "name": "_to",
          "type": "address"
        },
        {
          "name": "_tokenId",
          "type": "uint256"
        }
      ],
      "name": "transfer",
      "outputs": [],
      "payable": false,
      "stateMutability": "nonpayable",
      "type": "function"
    },
    {
      "constant": false,
      "inputs": [
        {
          "name": "_to",
          "type": "address"
        },
        {
          "name": "_tokenId",
          "type": "uint256"
        }
      ],
      "name": "approve",
      "outputs": [],
      "payable": false,
      "stateMutability": "nonpayable",
      "type": "function"
    },
    {
      "constant": false,
      "inputs": [
        {
          "name": "_tokenId",
          "type": "uint256"
        }
      ],
      "name": "takeOwnership",
      "outputs": [],
      "payable": false,
      "stateMutability": "nonpayable",
      "type": "function"
    }
  ],
  "bytecode": "0x60806040526010600155600154600a0a6002556000600760006101000a81548160ff021916908315150217905550336000806101000a81548173ffffffffffffffffffffffffffffffffffffffff021916908373ffffffffffffffffffffffffffffffffffffffff160217905550610e458061007c6000396000f3006080604052600436106100d0576000357c0100000000000000000000000000000000000000000000000000000000900463ffffffff168063095ea7b314610105578063413bd75e1461015257806342cb0fa7146101b35780636352211e1461022057806370a082311461028d57806371135f8b146102e457806375f12b21146102fb5780638b46e1081461032a5780638da5cb5b1461036b578063a9059cbb146103c2578063b2e6ceeb1461040f578063bd35cb251461043c578063d5a0db911461047d578063f2fde38b14610515575b600760009054906101000a900460ff161515156100ec57600080fd5b6000341115156100fb57600080fd5b610103610558565b005b34801561011157600080fd5b50610150600480360381019080803573ffffffffffffffffffffffffffffffffffffffff1690602001909291908035906020019092919050505061071e565b005b34801561015e57600080fd5b5061019d600480360381019080803573ffffffffffffffffffffffffffffffffffffffff169060200190929190803590602001909291905050506107e3565b6040518082815260200191505060405180910390f35b3480156101bf57600080fd5b506101de60048036038101908080359060200190929190505050610813565b604051808273ffffffffffffffffffffffffffffffffffffffff1673ffffffffffffffffffffffffffffffffffffffff16815260200191505060405180910390f35b34801561022c57600080fd5b5061024b60048036038101908080359060200190929190505050610846565b604051808273ffffffffffffffffffffffffffffffffffffffff1673ffffffffffffffffffffffffffffffffffffffff16815260200191505060405180910390f35b34801561029957600080fd5b506102ce600480360381019080803573ffffffffffffffffffffffffffffffffffffffff169060200190929190505050610883565b6040518082815260200191505060405180910390f35b3480156102f057600080fd5b506102f96108cf565b005b34801561030757600080fd5b50610310610947565b604051808215151515815260200191505060405180910390f35b34801561033657600080fd5b506103556004803603810190808035906020019092919050505061095a565b6040518082815260200191505060405180910390f35b34801561037757600080fd5b50610380610983565b604051808273ffffffffffffffffffffffffffffffffffffffff1673ffffffffffffffffffffffffffffffffffffffff16815260200191505060405180910390f35b3480156103ce57600080fd5b5061040d600480360381019080803573ffffffffffffffffffffffffffffffffffffffff169060200190929190803590602001909291905050506109a8565b005b34801561041b57600080fd5b5061043a60048036038101908080359060200190929190505050610a26565b005b34801561044857600080fd5b5061046760048036038101908080359060200190929190505050610aaf565b6040518082815260200191505060405180910390f35b34801561048957600080fd5b506104be600480360381019080803573ffffffffffffffffffffffffffffffffffffffff169060200190929190505050610ac7565b6040518080602001828103825283818151815260200191508051906020019060200280838360005b838110156105015780820151818401526020810190506104e6565b505050509050019250505060405180910390f35b34801561052157600080fd5b50610556600480360381019080803573ffffffffffffffffffffffffffffffffffffffff169060200190929190505050610b5e565b005b6000806000610565610cb3565b925060648381151561057357fe5b06830392506001600360206040519081016040528086815250908060018154018082558091505090600182039060005260206000200160009091929091909150600082015181600001555050039150336004600084815260200190815260200160002060006101000a81548173ffffffffffffffffffffffffffffffffffffffff021916908373ffffffffffffffffffffffffffffffffffffffff160217905550600560003373ffffffffffffffffffffffffffffffffffffffff1673ffffffffffffffffffffffffffffffffffffffff168152602001908152602001600020805490509050600560003373ffffffffffffffffffffffffffffffffffffffff1673ffffffffffffffffffffffffffffffffffffffff1681526020019081526020016000208290806001815401808255809150509060018203906000526020600020016000909192909190915055508060066000848152602001908152602001600020819055507f4910b634c8469f8fc73ff302c081c39b64bda51d49db82a0df727e8c82acb2a58284604051808381526020018281526020019250505060405180910390a1505050565b806004600082815260200190815260200160002060009054906101000a900473ffffffffffffffffffffffffffffffffffffffff1673ffffffffffffffffffffffffffffffffffffffff163373ffffffffffffffffffffffffffffffffffffffff1614151561078c57600080fd5b826008600084815260200190815260200160002060006101000a81548173ffffffffffffffffffffffffffffffffffffffff021916908373ffffffffffffffffffffffffffffffffffffffff160217905550505050565b6005602052816000526040600020818154811015156107fe57fe5b90600052602060002001600091509150505481565b60046020528060005260406000206000915054906101000a900473ffffffffffffffffffffffffffffffffffffffff1681565b60006004600083815260200190815260200160002060009054906101000a900473ffffffffffffffffffffffffffffffffffffffff169050919050565b6000600560008373ffffffffffffffffffffffffffffffffffffffff1673ffffffffffffffffffffffffffffffffffffffff168152602001908152602001600020805490509050919050565b6000809054906101000a900473ffffffffffffffffffffffffffffffffffffffff1673ffffffffffffffffffffffffffffffffffffffff163373ffffffffffffffffffffffffffffffffffffffff1614151561092a57600080fd5b6001600760006101000a81548160ff021916908315150217905550565b600760009054906101000a900460ff1681565b60038181548110151561096957fe5b906000526020600020016000915090508060000154905081565b6000809054906101000a900473ffffffffffffffffffffffffffffffffffffffff1681565b806004600082815260200190815260200160002060009054906101000a900473ffffffffffffffffffffffffffffffffffffffff1673ffffffffffffffffffffffffffffffffffffffff163373ffffffffffffffffffffffffffffffffffffffff16141515610a1657600080fd5b610a21338484610ce6565b505050565b60003373ffffffffffffffffffffffffffffffffffffffff166008600084815260200190815260200160002060009054906101000a900473ffffffffffffffffffffffffffffffffffffffff1673ffffffffffffffffffffffffffffffffffffffff16141515610a9557600080fd5b610a9e82610846565b9050610aab813384610ce6565b5050565b60066020528060005260406000206000915090505481565b6060600560008373ffffffffffffffffffffffffffffffffffffffff1673ffffffffffffffffffffffffffffffffffffffff168152602001908152602001600020805480602002602001604051908101604052809291908181526020018280548015610b5257602002820191906000526020600020905b815481526020019060010190808311610b3e575b50505050509050919050565b6000809054906101000a900473ffffffffffffffffffffffffffffffffffffffff1673ffffffffffffffffffffffffffffffffffffffff163373ffffffffffffffffffffffffffffffffffffffff16141515610bb957600080fd5b600073ffffffffffffffffffffffffffffffffffffffff168173ffffffffffffffffffffffffffffffffffffffff1614151515610bf557600080fd5b8073ffffffffffffffffffffffffffffffffffffffff166000809054906101000a900473ffffffffffffffffffffffffffffffffffffffff1673ffffffffffffffffffffffffffffffffffffffff167f8be0079c531659141344cd1fd0a4f28419497f9722a3daafe3b4186f6b6457e060405160405180910390a3806000806101000a81548173ffffffffffffffffffffffffffffffffffffffff021916908373ffffffffffffffffffffffffffffffffffffffff16021790555050565b6000804260405180828152602001915050604051809103902060019004905060025481811515610cdf57fe5b0691505090565b6000600560008473ffffffffffffffffffffffffffffffffffffffff1673ffffffffffffffffffffffffffffffffffffffff16815260200190815260200160002082908060018154018082558091505090600182039060005260206000200160009091929091909150555060066000838152602001908152602001600020549050600560008573ffffffffffffffffffffffffffffffffffffffff1673ffffffffffffffffffffffffffffffffffffffff16815260200190815260200160002081815481101515610db357fe5b9060005260206000200160009055826004600084815260200190815260200160002060006101000a81548173ffffffffffffffffffffffffffffffffffffffff021916908373ffffffffffffffffffffffffffffffffffffffff160217905550505050505600a165627a7a7230582054becc26bfa3c93ab7fc40d7a776728ed8a529cb9654509b90a8335a567596fe0029",
  "source": "pragma solidity ^0.4.23;\r\n\r\nimport \"./pandaFactory.sol\";\r\n\r\nimport \"./CircuitBreaker.sol\";\r\n\r\n\r\ncontract PandaOwnership is PandaFactory, CircuitBreaker {\r\n\r\n  // Mapping from panda ID to approved address\r\n  mapping (uint => address) pandaApprovals;\r\n\r\n  /**\r\n  * @dev Gets the balance of the specified address\r\n  * @param _owner address to query the balance of\r\n  * @return uint256 representing the amount of pandas owned by the passed address\r\n  */\r\n  function balanceOf(address _owner) public view returns (uint256 _balance) {\r\n    return ownedPandas[_owner].length;\r\n  }\r\n\r\n    /**\r\n   * @dev Gets the owner of the specified token ID\r\n   * @param _tokenId uint256 ID of the token to query the owner of\r\n   * @return owner address currently marked as the owner of the given token ID\r\n   */\r\n  function ownerOf(uint256 _tokenId) public view returns (address _owner) {\r\n    return pandaToOwner[_tokenId];\r\n  }\r\n  \r\n    /**\r\n   * @dev Gets the pandas of the specified address\r\n   * @param _owner address to query the balance of\r\n   * @return uint256[] representing the pandas owned by the passed address\r\n   */\r\n  function pandasOf(address _owner) public view returns (uint256[] _ownedPandaIds) {\r\n    return ownedPandas[_owner];\r\n  }\r\n\r\n    /**\r\n   * @dev Transfers the ownership of a given token ID to another address\r\n   * Usage of this method is discouraged, use `safeTransferFrom` whenever possible\r\n   * Requires the msg sender to be the owner, approved, or operator\r\n   * @param _from current owner of the token\r\n   * @param _to address to receive the ownership of the given token ID\r\n   * @param _tokenId uint256 ID of the token to be transferred\r\n  */\r\n  function _transfer(address _from, address _to, uint256 _tokenId) private {\r\n    ownedPandas[_to].push(_tokenId);\r\n    uint pandaIndex = ownedPandaIndex[_tokenId];\r\n    delete ownedPandas[_from][pandaIndex];\r\n    pandaToOwner[_tokenId] = _to;\r\n    //Transfer(_from, _to, _tokenId);\r\n  }\r\n\r\n  /**\r\n   * @dev Transfers the ownership of a given token ID to another address\r\n   * Requires the msg sender to be the owner\r\n   * @param _to address to receive the ownership of the given token ID\r\n   * @param _tokenId uint256 ID of the token to be transferred\r\n  */\r\n  function transfer(address _to, uint256 _tokenId) public onlyOwnerOf(_tokenId) {\r\n    _transfer(msg.sender, _to, _tokenId);\r\n  }\r\n\r\n    /**\r\n   * @dev Approves another address to transfer the given token ID\r\n   * The zero address indicates there is no approved address.\r\n   * There can only be one approved address per token at a given time.\r\n   * Can only be called by the token owner\r\n   * @param _to address to be approved for the given token ID\r\n   * @param _tokenId uint256 ID of the token to be approved\r\n   */\r\n  function approve(address _to, uint256 _tokenId) public onlyOwnerOf(_tokenId) {\r\n    pandaApprovals[_tokenId] = _to;\r\n    //Approval(msg.sender, _to, _tokenId);\r\n  }\r\n\r\n   /**\r\n   * @dev Allows approved account to take ownership of a token\r\n   * @param _tokenId uint256 ID of the token to be approved\r\n   */\r\n  function takeOwnership(uint256 _tokenId) public {\r\n    require(pandaApprovals[_tokenId] == msg.sender);\r\n    address owner = ownerOf(_tokenId);\r\n    _transfer(owner, msg.sender, _tokenId);\r\n  }\r\n  \r\n  // @dev default function for buying new Panda Token\r\n  function () stopInEmergency payable public {\r\n    require(msg.value > 0);\r\n    createRandomPanda();\r\n  }\r\n}",
  "sourcePath": "C:\\Users\\jjkra\\apps\\eth\\consensys\\final-proj\\truffle\\contracts\\pandaownership.sol",
  "compiler": {
    "name": "solc",
    "version": "0.4.24+commit.e67f0147.Emscripten.clang"
  },
  "schemaVersion": "2.0.1",
  "updatedAt": "2018-08-24T21:26:15.550Z"
}